:100000000C94B4020C94D1020C94D1020C94D10241
:100010000C94D1020C94D1020C94D1020C94D10214
:100020000C94D1020C94D1020C94D1020C94D10204
:100030000C94D1020C94D1020C94D1020C94D102F4
:100040000C94F0020C94D1020C94D1020C94D102C5
:100050000C94D1020C94D1020C94D1020C94D102D4
:100060000C94D1020C94D1020000000000000000AA
:100070000000000000000000000000000000000080
:100080000000000000000000000000000000000070
:100090000000000000000000000000000000000060
:1000A0000000000000000000000000000000000050
:1000B0000000000000000000000000000000000040
:1000C0000000000000000000000000000000000030
:1000D0000000000000000000000000000000000020
:1000E0000000000000000000000000000000000010
:1000F0000000000000000000000000000000000000
:100100000000000000000000000000000000005F90
:1001100000000007000700147F147F14242A7F2AA0
:10012000122313086462364955225000050300006B
:10013000001C2241000041221C0014083E08140843
:10014000083E080800503000000808080808006051
:1001500060000020100804023E4141413E000402BC
:100160007F0042615149462241414936181412111B
:100170007F47454545397E494949320101611907A3
:100180003649494936264949493E0036360000007D
:1001900056360000081422410014141414140041AF
:1001A0002214080201510906324979413E7C12119C
:1001B000127C7F49494E303E414141227F414122DC
:1001C0001C7F494949417F090909013E415151328A
:1001D0007F0808087F00417F41002040413F017FA8
:1001E000081422417F404040407F0204027F7F0488
:1001F00008107F3E4141413E7E1111110E3E41519A
:10020000617E7E1111214E264949493201017F014B
:10021000013F4040403F0F3040300F3F4030403FB3
:1002200063140814630304780403615149454300CF
:100230007F41410002040810200041417F00040278
:100240000102044040404040000102040024545494
:1002500038403F44444438384444442038444444BB
:100260007F3854545458087E0901024C9494947C6D
:100270007F0808087000007D000040807D00007F3E
:100280001028440000007F00007C047804787C047F
:10029000047800384444443800FC2424180018240E
:1002A00024FC7C080404082054545408083F4840A7
:1002B000203C4040403C0C3040300C3C4030403C06
:1002C0004428102844004C90907C4464544C000016
:1002D000000000000000000000000000000000001E
:1002E000000000000000000000000000000000000E
:1002F00000000000000000000000000000000000FE
:1003000000000000000000000000000000000000ED
:1003100000000000000000000000000000000000DD
:1003200000000000000000000000000000000000CD
:1003300000000000000000000000000000000000BD
:1003400000000000000000000000000000000000AD
:10035000000000000000000000000000000000009D
:10036000000000000000000000000000000000008D
:10037000000000000000000000000000000000007D
:10038000000000000000000000000000000000006D
:10039000000000000000000000000000000000005D
:1003A000000000000000000000000000000000004D
:1003B000000000000000000000000000000000003D
:1003C000000000000000000000000000000000002D
:1003D000000000000000000000000000000000001D
:1003E000000000000000000000000000000000000D
:1003F00000000000000000000000000000000000FD
:1004000000000000000000000000000000000000EC
:1004100000000000000000000000000000000000DC
:1004200000000000000000007C1211127C7F454596
:1004300045397F49494E307F01010101603E213F2E
:10044000607F4949494163147F1463224149493619
:100450007F2010087F7C2112097C7F0814224140F4
:100460003E01017F7F0204027F7F0808087F3E4132
:1004700041413E7F0101017F7E1111110E3E41413C
:10048000412201017F0101074848483F06097F09D1
:100490000663140814637F404040FF070808087F84
:1004A0007F407F407F7F407F40FF017F4848307F13
:1004B0004830007F007F4848304149492A1C7F0866
:1004C0003E413E462919097F7C141414080814146F
:1004D000187C7C080404084854545420043F4440C9
:1004E000203C4040207C1C2040201C3C4030403CB4
:1004F00044281028440C5050503C4464544C440050
:100500000836410000007F00000041360800100856
:1005100008100878464146787C141414080814140E
:10052000187C7C080404084854545420043F444078
:10053000203C4040207C1C2040201C3C4030403C63
:1005400044281028440C5050503C4464544C4400FF
:100550000836410000007F00000041360800100806
:10056000081008784641467811241FBECFEFD8E026
:10057000DEBFCDBF12E0A0E0B1E0ECE5FEE002C0DE
:1005800005900D92AC3EB107D9F712E0ACEEB2E0A7
:1005900001C01D92A53FB107E1F70E9414030C941E
:1005A0002C070C94000083E08AB98FEF84B98CB5D6
:1005B00081658CBD7894089585B5816085BDEEE632
:1005C000F0E08081816080830895ECE7F0E0808135
:1005D00080648083EAE7F0E0808186688083089504
:1005E0001F920F920FB60F9211242F933F934F93A8
:1005F0005F936F937F938F939F93AF93BF93EF938B
:10060000FF930E941806FF91EF91BF91AF919F91C8
:100610008F917F916F915F914F913F912F910F90AB
:100620000FBE0F901F9018950E94D3020E94E50202
:100630000E9476060E94A6060E9423030E94DC0206
:100640000E942E03FFCF84E08093EF028093EE029E
:1006500081E08093ED028093EC020895BF92CF92E7
:10066000DF92EF92FF920F931F93CF93DF93CC24EF
:10067000DD246894C1F8D1E0BB24B39416C0F7011F
:1006800081917F01F80191918F01880F892B6D2F46
:100690004C2F0E94D706CF5FCA3189F7DF5F82E017
:1006A00090E0C80ED91EDA3039F1C601880F991FC3
:1006B0008C0D9D1D7C01EE0CFF1CEE0CFF1CEE0C46
:1006C000FF1CE80EF91EE2E0F1E0EE0EFF1E9601BF
:1006D00021503040C901880F991F820F931F8C0150
:1006E000000F111F000F111F000F111F080F191FFE
:1006F0000E0F1F1FCB2DC3CFDF91CF911F910F91F5
:10070000FF90EF90DF90CF90BF900895CF93DF934D
:10071000D091EE024D2F50E0C091EF02AC2FB0E02F
:1007200061E071E0CA01880F991F840F951F9C0139
:10073000220F331F220F331F220F331FFC01E20F42
:10074000F31FEA0FFB1FE60FF71F1082CA01019784
:100750009C01220F331F820F931F9C01220F331F16
:10076000220F331F220F331F820F931F8A0F9B1FED
:10077000860F971F21E0FC018081813009F020E085
:100780002223E9F49A012F5F3F4FC901880F991F77
:10079000820F931F9C01220F331F220F331F220F42
:1007A000331FFC01E20FF31FEA0FFB1FEF5FFE4F49
:1007B00081E09081913009F080E0882331F09091C0
:1007C000EC0281E089278093EC02CA01880F991F0F
:1007D000480F591FCA01880F991F880F991F880F4A
:1007E000991F480F591F4F5F5E4FA40FB51FFD01A2
:1007F0003197808111962C91119791E0823009F008
:1008000090E0992331F491E0223009F090E09923AF
:1008100031F03091ED0291E093279093ED0291E059
:10082000813009F090E0992331F481E0213009F022
:1008300080E0882331F09091ED0281E08927809358
:10084000ED028091ED02882321F0CF5FC093EF028B
:1008500005C08091EF0281508093EF028091EC02FD
:10086000882321F0DF5FD093EE0205C08091EE0275
:1008700081508093EE022091EE0230E04091EF0231
:10088000C901880F991F820F931FFC01EE0FFF1FF4
:10089000EE0FFF1FEE0FFF1FE80FF91FE40FF11D12
:1008A000EF5FFE4F81E08083DF91CF9108950F933A
:1008B0001F93CF93DF934091F1025091F2029A017E
:1008C0002250304001E011E0C901880F991F820FCA
:1008D000931F9C01220F331F220F331F220F331F40
:1008E000820F931FF801E80FF91F12829A0121501D
:1008F0003040C901880F991F820F931F9C01220F5E
:10090000331F220F331F220F331F820F931FF80153
:10091000E80FF91F1282CA01880F991F840F951FD3
:100920009C01220F331F220F331F220F331F820F10
:10093000931FF801E80FF91F12829A012F5F3F4FB2
:10094000C901880F991F820F931F9C01220F331F2B
:10095000220F331F220F331F820F931FF801E80F5E
:10096000F91F1282CA010296AC01440F551F480FAD
:10097000591FFA01EE0FFF1FEE0FFF1FEE0FFF1FB3
:100980004E0F5F1FF801E40FF51F12824091F30232
:100990005091F4029A0122503040C901880F991FEA
:1009A000820F931F9C01220F331F220F331F220F30
:1009B000331F820F931FF801E80FF91F108E9A0161
:1009C00021503040C901880F991F820F931F9C014D
:1009D000220F331F220F331F220F331F820F931F4B
:1009E000F801E80FF91F108ECA01880F991F840FB4
:1009F000951F9C01220F331F220F331F220F331F1D
:100A0000820F931FF801E80FF91F108E9A012F5FD4
:100A10003F4FC901880F991F820F931F9C01220F1E
:100A2000331F220F331F220F331F820F931FF80132
:100A3000E80FF91F108ECA010296AC01440F551F32
:100A4000480F591FFA01EE0FFF1FEE0FFF1FEE0FA9
:100A5000FF1F4E0F5F1FF801E40FF51F108E81E09E
:100A60000E941F06CBE4D0E0BE010E9418076E5F13
:100A70007F4F7093F2026093F10282E00E941F06A2
:100A8000BE010E941807DB01EB012296D093F4020D
:100A9000C093F3026091F1027091F202CB010297D0
:100AA0009C01220F331F820F931F9C01220F331FC3
:100AB000220F331F220F331F820F931FF801E80FFD
:100AC000F91F41E04283CB0101979C01220F331FA4
:100AD000820F931F9C01220F331F220F331F220FFF
:100AE000331F820F931FF801E80FF91F4283CB01D8
:100AF000880F991F860F971F9C01220F331F220F0B
:100B0000331F220F331F820F931FF801E80FF91FC5
:100B10004283CB0101969C01220F331F820F931F4A
:100B20009C01220F331F220F331F220F331F820F0E
:100B3000931FF801E80FF91F4283CB0102969C0135
:100B4000220F331F820F931F9C01220F331F220F8E
:100B5000331F220F331F820F931FF801E80FF91F75
:100B60004283CD01880F991F8A0F9B1F9C01220F82
:100B7000331F220F331F220F331F820F931FF801E1
:100B8000E80FF91F408FCD0101969C01220F331F02
:100B9000820F931F9C01220F331F220F331F220F3E
:100BA000331F820F931FF801E80FF91F408FCE010A
:100BB000880F991F8C0F9D1F9C01220F331F220F3E
:100BC000331F220F331F820F931FF801E80FF91F05
:100BD000408F9D012D5F3F4FC901880F991F820FE4
:100BE000931F9C01220F331F220F331F220F331F2D
:100BF000820F931FF801E80FF91F408F9D012C5FB2
:100C00003F4FC901880F991F820F931F9C01220F2C
:100C1000331F220F331F220F331F820F931F080F22
:100C2000191FF801408FDF91CF911F910F91089507
:100C30000E9486030E9457040E942E03089581306B
:100C4000E1F4ECE7F0E08081877F80830000808121
:100C5000826080830000EAE7F0E080818064808326
:100C6000808182FFFDCFEAE7F0E0808180618083B0
:100C7000809178009091790008958230E1F4ECE75A
:100C8000F0E08081877F80830000808183608083A3
:100C90000000EAE7F0E0808180648083808182FF49
:100CA000FDCFEAE7F0E08081806180838091780069
:100CB0009091790008958CE790E00895662311F4EF
:100CC000589801C0589A59988EBD0DB407FEFDCFB3
:100CD000599A08955A9885E08A95F1F700005A9A32
:100CE000599A85E38A95F1F7000008950E946A06F3
:100CF00081E260E00E945E0689E060E00E945E069C
:100D000080EE60E00E945E0685E160E00E945E0683
:100D100086E060E00E945E0680E260E00E945E067F
:100D20008CE060E00E945E060895CF93C62F805C41
:100D300060E00E945E068C2F805860E00E945E0694
:100D400085E38A95F1F70000CF910895CF93DF9363
:100D5000C0E3D3E080E061E00E945E062197D1F716
:100D6000DF91CF9108950F931F93CF93DF93C0E04E
:100D7000D0E090E08C01000F111F000F111F080F31
:100D8000191FF801EC0FFD1FE859FF4F849161E036
:100D90000E945E062196C530D10599F780E061E09A
:100DA0000E945E06DF91CF911F910F9108951F93CE
:100DB000CF93DF93182F8FE193E00197F1F700C0F5
:100DC0000000440F440F4450862F8150642F0E942E
:100DD0009506112349F4C4E0D0E080E061E00E9470
:100DE0005E062197D1F716C0113049F4C4E0D0E077
:100DF0008FE061E00E945E062197D1F715C01230A6
:100E000049F4C4E0D0E080EF61E00E945E062197E3
:100E1000D1F70AC0133041F4C4E0D0E08FEF61E0B5
:100E20000E945E062197D1F7DF91CF911F9108951F
:100E3000AA1BBB1B51E107C0AA1FBB1FA617B70700
:100E400010F0A61BB70B881F991F5A95A9F780951C
:0C0E50009095BC01CD010895F894FFCFEF
:100E5C000101010101010101010101010101010176
:100E6C000101010101010101010101010100000069
:100E7C000000000000000000000000000000000066
:100E8C000000000000000101000000000000000054
:100E9C000000000000000000000000000000000046
:100EAC000001010000000000000000000000000034
:100EBC000000000000000000000000000101000024
:100ECC000000000000000000000000000000000016
:100EDC000000000000000001010000000000000004
:100EEC0000000000000000000000000000000000F6
:100EFC0000000101000000000000000000000000E4
:100F0C0000000000000000000000000000010100D3
:100F1C0000000000000000000000000000000000C5
:100F2C0000000000000000000101000000000000B3
:100F3C0000000000000000000000000000000000A5
:100F4C000000000101000000000000000000000093
:100F5C000000000000000000000000000000010183
:100F6C000000000000000000000000000000000075
:100F7C000000000000000000000101000000000063
:100F8C000000000000000000000000000000000055
:100F9C000000000001010000000000000000000043
:100FAC000000000000000000000000000000000134
:100FBC000100000000000000000000000000000024
:100FCC000000000000000000000001010000000013
:100FDC000000000000000000000000000000000005
:100FEC0000000000000101000000000000000000F3
:100FFC0000000000000000000000000000000000E5
:10100C0001010000000000000000000000000000D2
:10101C0000000000000000000000000101010101BF
:10102C0001010101010101010101010101010101A4
:0C103C0001010101010101060F0F060077
:00000001FF
