:1000000092C2ACC2ABC2AAC2A9C2A8C2A7C2A6C2AF
:10001000A5C2B8C2A3C2A2C2A1C2A0C2CEC29EC281
:100020009DC29CC29BC200000000000000000000B6
:1000300000000000000000000000000000000000C0
:1000400000000000000000000000000000000000B0
:1000500000000000000000000000000000000000A0
:100060000000000000000000000000000000000090
:100070000000000000000000000000000000000080
:100080000000000000000000000000000000000070
:100090000000000000000000000000000000000060
:1000A0000000000000000000000000000000000050
:1000B0000000000000000000000000000000000040
:1000C000000000000000000000000000005F0000D1
:1000D0000007000700147F147F14242A7F2A1223AC
:1000E0001308646236495522500005030000001CC5
:1000F0002241000041221C0014083E081408083E5A
:100100000808005030000008080808080060600077
:100110000020100804023E4141413E0004027F00DD
:1001200042615149462241414936181412117F4714
:10013000454545397E49494932010161190736492A
:10014000494936264949493E0036360000005636B0
:100150000000081422410014141414140041221445
:10016000080201510906324979413E7C1211127C84
:100170007F49494E303E414141227F4141221C7F0F
:10018000494949417F090909013E415151327F08DE
:1001900008087F00417F41002040413F017F081453
:1001A00022417F404040407F0204027F7F040810CC
:1001B0007F3E4141413E7E1111110E3E4151617E13
:1001C0007E1111214E264949493201017F01013F2B
:1001D0004040403F0F3040300F3F4030403F6314BD
:1001E00008146303047804036151494543007F41C7
:1001F000410002040810200041417F000402010276
:10020000044040404040000102040024545438405F
:100210003F444444383844444420384444447F38BC
:1002200054545458087E0901024C9494947C7F08DD
:1002300008087000007D000040807D00007F1028CD
:10024000440000007F00007C047804787C0404787B
:1002500000384444443800FC24241800182424FCAA
:100260007C080404082054545408083F4840203CAB
:100270004040403C0C3040300C3C4030403C442836
:10028000102844004C90907C4464544C00000000C2
:10029000000000000000000000000000000000005E
:1002A000000000000000000000000000000000004E
:1002B000000000000000000000000000000000003E
:1002C000000000000000000000000000000000002E
:1002D000000000000000000000000000000000001E
:1002E000000000000000000000000000000000000E
:1002F00000000000000000000000000000000000FE
:1003000000000000000000000000000000000000ED
:1003100000000000000000000000000000000000DD
:1003200000000000000000000000000000000000CD
:1003300000000000000000000000000000000000BD
:1003400000000000000000000000000000000000AD
:10035000000000000000000000000000000000009D
:10036000000000000000000000000000000000008D
:10037000000000000000000000000000000000007D
:10038000000000000000000000000000000000006D
:10039000000000000000000000000000000000005D
:1003A000000000000000000000000000000000004D
:1003B000000000000000000000000000000000003D
:1003C000000000000000000000000000000000002D
:1003D000000000000000000000000000000000001D
:1003E0000000000000007C1211127C7F4545453959
:1003F0007F49494E307F01010101603E213F607F0E
:100400004949494163147F146322414949367F2099
:1004100010087F7C2112097C7F08142241403E0194
:10042000017F7F0204027F7F0808087F3E4141412F
:100430003E7F0101017F7E1111110E3E414141229B
:1004400001017F0101074848483F06097F0906630B
:10045000140814637F404040FF070808087F7F406E
:100460007F407F7F407F40FF017F4848307F48309A
:10047000007F007F4848304149492A1C7F083E419F
:100480003E462919097F7C14141408081414187C9A
:100490007C080404084854545420043F4440203C41
:1004A0004040207C1C2040201C3C4030403C4428E4
:1004B0001028440C5050503C4464544C44000836BE
:1004C000410000007F0000004136080010080810BD
:1004D0000878464146787C14141408081414187CD3
:1004E0007C080404084854545420043F4440203CF1
:1004F0004040207C1C2040201C3C4030403C442894
:100500001028440C5050503C4464544C440008366D
:10051000410000007F00000041360800100808106C
:1005200008784641467811241FBECFE5D4E0DEBFEF
:10053000CDBF10E0A0E6B0E0ECECFFE002C005901B
:100540000D92A436B107D9F720E0A4E6B0E001C0CF
:100550001D92A837B207E1F779D036C551CD8FE0AB
:1005600081BB8FEF87BB8DB181658DB93E9A86B116
:100570008F6A86B9369A85E083BF89B7816089BF63
:10058000789408951F920F920FB60F9211248F93B3
:1005900088B78E7F88BF81E080937500809164006A
:1005A0008F5F8093640080916400109264008F914B
:1005B0000F900FBE0F901F9018951F920F920FB6BD
:1005C0000F9211248F939F93EF93FF933498809110
:1005D0007700882319F0813079F020C0E09176000F
:1005E00084B195B1F0E0EE0FFF1FE359FF4F918307
:1005F000808381E487B912C0E091760084B195B11F
:10060000F0E0EE0FFF1FEB59FF4F91838083809145
:1006100076008F5F8093760080E487B980917700C1
:100620008F5F80937700809177008170809377004F
:1006300080917600837080937600FF91EF919F9177
:100640008F910F900FBE0F901F901895CF93DF934F
:10065000CDB7DEB7AF970FB6F894DEBF0FBECDBFF4
:1006600060E486E6FDD360E486E606D364E0CE016E
:10067000439615D302E010E021E030E041E350E082
:100680006EE170E0CE014396FCD244E164E0CE011D
:100690000A96E9D344E164E0CE010196E4D35FDF3A
:1006A00018D43DD460E080E02BD481E444D483E5C9
:1006B00042D483E540D42FEF83ED90E32150804076
:1006C0009040E1F700C00000E12CF12C0F2EFDE678
:1006D0006F2EF0E07F2EF02D0F2EF9E25F2EF02D21
:1006E0000F2EF4E69F2EF02D0F2EFDEC8F2EF02D09
:1006F000CC24CA94D12C0F2EF8E1AF2EF02D0F2E62
:10070000FFE0BF2EF02D809164008111FCCF80911D
:1007100075008823C1F3A4C281919191680F791F5C
:100720008D919D91080F191FE615F705A9F776958C
:10073000679576956795CE010196A6D3B801769513
:10074000679576956795CE010A969ED3AE01465F72
:100750005F4FBE016F5F7F4FCE014396A3D28230C1
:10076000E9F4F3948EEF9FEF9DA38CA38FEF9FEF9F
:100770009FA38EA381E390E099A388A38EE190E0EC
:100780009BA38AA30CA11DA12EA13FA148A159A101
:100790006AA17BA1CE01439674D21EC08130E1F4E0
:1007A000E39482E090E09DA78CA781E090E09FA772
:1007B0008EA781E390E099A788A78EE190E09BA7A0
:1007C0008AA70CA51DA52EA53FA548A559A56AA5D4
:1007D0007BA5CE01439655D265E280E091D3F59C8E
:1007E000812D112482958F709F2D899D9019112440
:1007F000989D812D1124869586958695805D9BD345
:10080000F89C812D1124869586958695880F982FC2
:10081000990F990F890F2F2D281B822F805D8BD365
:100820008AE389D3E59C812D112482958F709E2DBA
:10083000899D90191124989D812D11248695869566
:100840008695805D78D3E89C812D112486958695C8
:100850008695880F982F990F990F890F2E2D281B99
:10086000822F805D68D32D8130E02A503109C90183
:1008700099230CF407969595879595958795959569
:10088000879564E03DD361E080E00CD361E080E0D7
:1008900009D361E080E006D361E080E003D32D81DD
:1008A00030E02A503109C90199230CF40796959537
:1008B0008795959587959595879564E08F5F20D36B
:1008C00061E080E0EFD261E080E0ECD261E080E0C6
:1008D000E9D261E080E0E6D22D8130E02A50310992
:1008E000C90199230CF40796959587959595879559
:1008F0009595879564E08E5F03D361E080E0D2D266
:1009000061E080E0CFD261E080E0CCD261E080E0C5
:10091000C9D239802C8130E02A503109C901877051
:100920009078992324F40197886F9F6F0196482E41
:10093000C90199230CF40796959587959595879508
:100940009595879564E0DCD261E08601042C02C0B5
:10095000000F111F0A94E2F7802FA4D261E0802FCC
:10096000A1D261E0802F9ED261E0802F9BD22C81AA
:1009700030E02A503109C90199230CF40796959566
:100980008795959587959595879564E08F5FB8D203
:1009900061E08FEF87D261E08FEF84D261E08FEF6B
:1009A00081D261E08FEF7ED22C8130E02A50310974
:1009B000C90199230CF40796959587959595879588
:1009C0009595879564E08E5F9BD28A2D8319841953
:1009D000860102C0159507958A95E2F761E0802FA0
:1009E00061D261E0802F5ED261E0802F5BD261E056
:1009F000802F58D22E8530E02A503109C901992321
:100A00000CF4079695958795959587959595879577
:100A10006CE576D261E080E045D261E080E042D2D0
:100A200061E080E03FD261E080E03CD22E8530E0A2
:100A30002A503109C90199230CF407969595879599
:100A400095958795959587956CE58F5F59D261E06F
:100A500080E028D261E080E025D261E080E022D20F
:100A600061E080E01FD22E8530E02A503109C901B3
:100A700099230CF407969595879595958795959567
:100A800087956CE58E5F3CD261E080E00BD261E03F
:100A900080E008D261E080E005D261E080E002D22F
:100AA0003A842D8530E02A503109C9018770907849
:100AB000992324F40197886F9F6F0196482EC901EE
:100AC00099230CF407969595879595958795959517
:100AD00087956CE515D261E08601042C02C0000FF9
:100AE000111F0A94E2F7802FDDD161E0802FDAD167
:100AF00061E0802FD7D161E0802FD4D12D8530E007
:100B00002A503109C90199230CF4079695958795C8
:100B100095958795959587956CE58F5FF1D161E007
:100B20008FEFC0D161E08FEFBDD161E08FEFBAD11F
:100B300061E08FEFB7D12D8530E02A503109C9012E
:100B400099230CF407969595879595958795959596
:100B500087956CE58E5FD4D18A2D8319841986011F
:100B600002C0159507958A95E2F761E0802F9AD12A
:100B700061E0802F97D161E0802F94D161E0802FD8
:100B800091D1898D9A8D99230CF407969595879527
:100B900095958795959587956F89B2D161E080E0AD
:100BA00081D161E080E07ED161E080E07BD161E0D5
:100BB00080E078D18D899E8999230CF407969595CC
:100BC000879595958795959587956B8999D18D8909
:100BD0009E8987709078992324F40197886F9F6F7E
:100BE000019661E02B2D01C0220F8A95EAF7822F32
:100BF00059D18D899E8987709078992324F4019723
:100C0000886F9F6F019661E02B2D01C0220F8A959E
:100C1000EAF7822F47D18D899E8987709078992332
:100C200024F40197886F9F6F019661E02B2D01C01E
:100C3000220F8A95EAF7822F35D18D899E89877098
:100C40009078992324F40197886F9F6F019661E053
:100C50002B2D01C0220F8A95EAF7822F23D153CD85
:100C600010927500939AE5E6F0E0ADE6B0E000E0A2
:100C700010E060E070E050CD809361006093600010
:100C800008950F931F93FC01408351836283738304
:100C900000871187228733871F910F910895FC01E8
:100CA00064870895CF92DF92EF92FF920F931F9384
:100CB000CF93DF93FC017A0180819181A281B3817E
:100CC00084839583A683B783A085B1858081918134
:100CD0008A0F9B1F91838083028513852281338134
:100CE000200F311F3383228389309105ACF5EB014E
:100CF000CB80D12C58815695C52FD0E0A6014C1B36
:100D00005D0B4217530744F5CC0DDD1D2C173D0735
:100D10001CF588E090E091838083B195A195B1099D
:100D2000B187A087DB0115968C91080F111D87FDF7
:100D30001A9513870287043011052CF083E090E0A8
:100D40009387828760C00D3F1F4F0CF05CC08DEF12
:100D50009FEF9387828757C088359105ACF1E701F3
:100D60004B81642F70E058815695452F50E0EB0180
:100D7000C41BD50BC217D3073CF5460F571F2417CA
:100D8000350714F588E590E091838083B195A195AE
:100D9000B109B187A087D70115968C91080F111D55
:100DA00087FD1A9513870287043011052CF083E024
:100DB00090E09387828727C00D3F1F4F24F58DEF6A
:100DC0009FEF938782871FC099234CF41182108272
:100DD000B195A195B109B187A08781E038C0409154
:100DE000610050E06485461B510967FD5395481723
:100DF00059074CF451834083B195A195B109B1874E
:100E0000A08782E024C033235CF41382128282859F
:100E100093859195819591099387828780E017C08A
:100E20008091600090E04485841B910947FD939573
:100E3000821793075CF493838283828593859195CF
:100E4000819591099387828780E001C080E0DF91DE
:100E5000CF911F910F91FF90EF90DF90CF90089569
:100E6000609362000895FC01618340834695468348
:100E700060916200641B678370E0641B71098FEFEF
:100E800093E08FD060870895FC01CB0143814483B8
:100E90002085622F70E071D08681680F6383641BA8
:100EA00065830895611102C0909801C0909A91984D
:100EB0008FB9779BFECF919A0895929882E08A9598
:100EC000F1F700C0929A919A8AE18A95F1F700C0F1
:100ED0000895F3DF60E081E2E5DF60E089E0E2DFD2
:100EE00060E080EEDFDF60E085E1DCDF60E086E08F
:100EF000D9DF60E080E2D6DF60E08CE0D3DF0895E8
:100F0000CF93C62F60E0805CCDDF60E080E88C0F7F
:100F1000C9DF8AE18A95F1F700C0CF910895CF9398
:100F2000DF93C0E3D3E061E080E0BCDF2197D9F735
:100F3000DF91CF9108950F931F93CF93DF9390E0AC
:100F40008C01000F111F000F111F080F191FC0E0A7
:100F5000D0E0FE01E00FF11FEA5DFF4F849161E0F8
:100F6000A1DF2196C530D105A1F761E080E09ADFCD
:100F7000DF91CF911F910F910895AA1BBB1B51E1E7
:100F800007C0AA1FBB1FA617B70710F0A61BB70BF9
:100F9000881F991F5A95A9F780959095BC01CD019E
:100FA000089597FB072E16F4009406D077FD08D01D
:100FB000E4DF07FC05D03EF4909581959F4F08959E
:0C0FC000709561957F4F0895F894FFCF65
:040FCC004080400021
:00000001FF
